:0E0000000C9433000C9400000C9400000C943F
:10000E0000000C9400000C9400000C9400000C9462
:10001E0000000C9400000C9400000C9400000C9452
:10002E0000000C9400000C9400000C9400000C9442
:10003E0000000C9400000C9400000C9400000C9432
:10004E0000000C940000FF0080C00100620154000B
:10005E0002006A0156000000F894EE27ECBBF1E0B6
:10006E00FBBFEBBFE5BF8DE0A2E0BB27ED938A950A
:10007E00E9F780E094E0A0E6ED930197E9F7E8E573
:10008E00F0E085919591009761F0A591B59105905D
:10009E001590BF01F00105900D920197E1F7FB015C
:1000AE00F0CFEFE5EDBFE4E0EEBFC0E6D1E00C949B
:1000BE004C03AA93E881E064E7B98BE18A95F1F7E6
:1000CE00369A349BFECF349AE4B1F5B10C94BE044B
:1000DE00AA931A930E94C0040E9466050E94C0044F
:1000EE00A0EC0E94C504A9810E94C5040E94660569
:1000FE000E94C004A1EC0E94C504A0E00E947F05EE
:10010E001E2F0E94C0040E9475050E94C004E12F9C
:10011E0018810C946A04BA93AA930E94C804AE8103
:10012E00BF81EA0FFB1FEE83FF830E94C804AC81E0
:10013E00BD81EA0FFB1FEC83FD830E94C804A881DA
:10014E00B981EA0FFB1FE883F9830E94C804AA81D4
:10015E00BB81EA0FFB1FEA83FB83AE81BF81A03018
:10016E00E1E0BE0724F0EFEFF0E0EE83FF83AE8117
:10017E00BF81A130EFEFBE0724F4E1E0FFEFEE8385
:10018E00FF83AC81BD81A030E1E0BE0724F0EFEF2C
:10019E00F0E0EC83FD83AC81BD81A130EFEFBE07B3
:1001AE0024F4E1E0FFEFEC83FD83AA81BB81A03054
:1001BE00E1E0BE0724F0EFEFF0E0EA83FB83AA81D3
:1001CE00BB81A130EFEFBE0724F4E1E0FFEFEA833D
:1001DE00FB83A881B981A030E1E0BE0724F0EFEFE8
:1001EE00F0E0E883F983A881B981A130EFEFBE0773
:1001FE0024F4E1E0FFEFE883F983AE81BF810E9432
:10020E000B061CF49398EE8103C0939AEE81E15095
:10021E00E3BDAC81BD810E940B0624F49298EC8163
:10022E00FD8105C0929AEC81FD81E150FF4FFBBD2F
:10023E00EABDAA81BB810E940B0624F49198EA8143
:10024E00FB8105C0919AEA81FB81E150FF4FF9BD18
:10025E00E8BDA881B9810E940B061CF49098E88134
:10026E0003C0909AE881E150ECBF28960895EFEF15
:10027E00F3E03F01E0E0E0936001E09361010E9452
:10028E00CD0450970CF03FC00E94CD04E8E0F0E0A2
:10029E000E94D20411F4C79801C0C79A0E94CD04DF
:1002AE00E4E0F0E00E94D20411F4C69801C0C69AB0
:1002BE000E94CD04E2E0F0E00E94D20411F4C59851
:1002CE0001C0C59AE0916001F0916101A1E0B0E03A
:1002DE000E94F305E03011F4C49801C0C49AA0E066
:1002EE00E8DEE615F70538F44090600150906101A4
:1002FE00A0E0DFDE3F01A0E6B1E0ED91FD91319689
:10030E00FE93EE93BCCFE0E00E94DA04D2010E948D
:10031E00DD04D2010E94E904ADE30E947804D3010A
:10032E00E8EEF3E00E94F004D3010E94F404D3013E
:10033E000E94DD04D3010E94E904A7E0BADE6F013A
:10034E00E0E00E94F704ACE40E947804D6010E941B
:10035E00F404D6010E94DD04D6010E94E904A6E051
:10036E00A8DE4F01E5E00E94F704A2E40E947804A3
:10037E00D4010E94F404D4010E94DD04D4010E9431
:10038E00E904A5E096DE5F01EAE00E94F704A2E52B
:10039E000E947804D5010E94F404D5010E94DD0468
:1003AE00D5010E94E904A1E093DEF0E0A091660180
:1003BE00B0916701EA1BFB0B0E94FA04A091650144
:1003CE00AA2322F40E94C8040E94FA040E94FF0489
:1003DE00A138E0E0BE0734F00E94C804EF5FF040A1
:1003EE000E94FA040E94FF04A038EFEFBE0734F417
:1003FE000E94C804E150FF4F0E94FA04A0916501CB
:10040E00AA238AF0E9E00E94DA04ABE20E947804A3
:10041E000E94FF040E94F4040E94FF040E94DD0467
:10042E000E94FF0414C0A0916501AA23C2F4E9E062
:10043E000E94DA04ADE20E9478040E9404050E9434
:10044E00F4040E9404050E94DD040E940405EAE003
:10045E00F0E00E94E505E05DAE2F0E9478040E9458
:10046E00FF045A9734F40E94FF04A73EEFEFBE0735
:10047E000CF405C00E94C804ADEFBFEF04C00E948B
:10048E00C804AEEFBFEF0E94C8050E94FA04F60141
:10049E00EA19FB09E0936801F09369010895BA9394
:1004AE00AA93E881F981309751F40E9409050E94C0
:1004BE0009050E9410050E941705DF012CDEA88198
:1004CE00B981119761F40E9409050E941A050E94D4
:1004DE0017050E9417050E942305DF011CDEA88167
:1004EE00B981129731F40E9409050E9429050E94D4
:1004FE002C05A881B981139771F40E9409050E94F9
:10050E0010050E9423050E941705FA93EA930E9494
:10051E001A05DF0100DEA881B981149741F40E940B
:10052E0009050E9410050E9417050E943205A88138
:10053E00B981159751F40E941A050E9417050E9461
:10054E0017050E9423050E943205A881B9811697CE
:10055E0031F40E9429050E943A050E943205A881B5
:10056E00B981179769F40E941005BF010E942305F7
:10057E00FA93EA937A936A930E941A050E943205BF
:10058E00A881B981189759F40E941005FA93EA933D
:10059E000E943F05A0916201B0916301BCDDA8816C
:1005AE00B981199761F40E941005FA93EA930E949B
:1005BE0023050E943F050E941A05DF01ACDDA881CC
:1005CE00B9811A9749F40E9410050E943A050E94BB
:1005DE003F05A0E0B0E09FDDA881B9811B9771F4C3
:1005EE000E941005FA93EA930E941A050E943F0595
:1005FE000E9410050E942305DF018DDDA881B981BF
:10060E001C9751F40E9410050E943F050E94090597
:10061E000E941005DF017FDDA881B9811D9761F46D
:10062E000E9410050E9423050E943F050E941A0594
:10063E000E941705DF016FDDA881B9811E9741F475
:10064E00E0E0F0E00E943F050E942905DF0163DD36
:10065E00A881B9811F9761F40E941A050E943F0577
:10066E000E9410050E9423050E941705DF0153DD2D
:10067E00A881B981509741F4E0E0F0E00E943A057C
:10068E000E943A050E942C051EC1E0E0EABBEBBBBE
:10069E00E8EFE7BBE0E0E8BBE8E0E4BBE0E0E5BBA9
:1006AE00EFEFE1BBE0E0E2BBEBE6E3BFE0E0E2BF91
:1006BE00ECBFE1EAEFBDEBE0EEBDE0E0EDBDECBD81
:1006CE00E7BDE6BDEBBDEABDE9BDE8BDE2BDECE6CA
:1006DE00E5BDE0E0E4BDE3BDE9BFE5BFE4BFEAB9D7
:1006EE00E0E8E8B9E0E4E7B9E7E8E6B9E0E0E0BF62
:1006FE00EDB9E6BF0E946105A0E112D1A8EBBBE007
:10070E000E94B205A1E0E4DCF0E0E0936601F09314
:10071E006701EFEFF0E0E0936201F0936301A7DD74
:10072E00E0E9F1E06E167F060CF081C0EA15FB05DC
:10073E00B4F4E8E0F0E04E165F068CF498DDE2ECDF
:10074E00F1E0EA15FB0514F4ACE006C0EAEFF0E0C8
:10075E00AE16BF0624F0A0E1B0E0A1DEEACFE0E9DC
:10076E00F1E0EC15FD059CF486D18CF480DDE2EC15
:10077E00F1E0EC15FD0514F4A4E006C0EAEFF0E09C
:10078E00CE16DF0624F0A0E1B0E089DEEDCFE3E087
:10079E00F0E04E165F062CF0E7E0F0E0E415F5050C
:1007AE000CF403C0D201129640C0002404140504B8
:1007BE0051F0E1E0F0E0E415F50529F0EFE0F0E0AE
:1007CE00E415F50511F4D20130C0E2E0F0E0E415D5
:1007DE00F50511F4A3E028C0EDE0F0E0E415F50511
:1007EE002CF0E9E0F0E04E165F060CF403C0D201E7
:1007FE0012971BC0EEE0F0E0E415F50511F4ADE044
:10080E0013C039D129F4EAE9F0E0EA15FB050CF042
:10081E0002C0AAE009C02FD129F4EAE9F0E0EC15F4
:10082E00FD050CF003C0A6E0B0E039DE1BC0EAEF18
:10083E00F0E08E169F068CF423D1E659F04025D1B8
:10084E00EAE6FFEFEA1BFB0B20D1E6E9F0E0EA1B3C
:10085E00FB0B1BD1AA56BF4F04C012D11DD11CD108
:10086E0014D159DC5CCFFFCFAA93E5B3EF70AE2F56
:10087E00E881E07FEA2BE5BB8DE08A95F1F7AA9A35
:10088E008DE08A95F1F7AA988DE08A95F1F76FC001
:10089E00AA93A881E9DFE881E295E883A881E4DFE5
:1008AE0085E88A95F1F763C0AA93E881F0E0E659EE
:1008BE00FE4FE081A981AE0FEBDFE981E0936E017F
:1008CE00E881E0936F0122960895A2E0EBD0ACE0B0
:1008DE00DFDFA1E0E7D0E0E0E0936F01E0936E018F
:1008EE000895AA93A881AA3031F0E0917001A091E9
:1008FE006E01AE1758F0E0E0EA93A0916F01AF5F82
:10090E00A0936F01D1DFA881AA3089F1E0916E0129
:10091E00EF5FE0936E01A89AA881BADFA89827C06E
:10092E00AA93E4B3E06FE4BBA29AA09AA19AAA9804
:10093E00A898A998E881E0937001E058E0936C01C3
:10094E00E881E054E0936D01A4E1B0E00E94B205AD
:10095E00AED0ADD0ACD0A0E287DF0BD0A8E298DF4E
:10096E00A4E096DFA5E894DFA6E092DFAEDF219645
:10097E00089588EC90E00197F1F708950E949A058A
:10098E00F8CFE0916401F09165010895A0916001A6
:10099E00B091610108950E94E005A1E0B0E00E94CF
:1009AE00F305E0300895EA93A0E07ECFEAE0F0E0B0
:1009BE000E94E005DF01EAE0F0E00E94E505E05D5F
:1009CE00AE2F8FCFEAE0F0E00E94E505E05DAE2F9E
:1009DE0088CF0E94E005DF01F5CFE4E6F0E0F9CF25
:1009EE00EA93A1E061CFE0936401F093650108956D
:1009FE00A0916401B09165010895C3DF0E94BC050A
:100A0E00DF010895E0916201F0916301FA93EA9398
:100A1E000895E0916201F09163010E94BC05089572
:100A2E00FA93EA93F6CFA0916201B0916301E2E0EE
:100A3E00F0E00E94E0050895DF01E2E0F0E00E94A0
:100A4E00E0050895E0E0F0E0EBCFFA93EA93A0E042
:100A5E00B0E00C949200FA93EA93A0916201B091E7
:100A6E0063010C949200FA93EA93E0E0F0E00895AB
:100A7E00FA93EA93C7CFE8E0F0E0E415F5050895A0
:100A8E00E0916801F09169010895FA93EA93A091BB
:100A9E006801B09169010895FA93EA93F1DF0E941B
:100AAE00BC050895F5DEA3E0B0E00C94B205A0E31A
:100ABE00DBDE5FCFC098C198B89AB99815C0B998C7
:100ACE00B898EE270000B19B0895B09B089504D00E
:100ADE00B99A02D0B89AE1E06DE007C0B99AB89A17
:100AEE0003D0B898F9DFB9986BE16A95F1F70895DC
:100AFE0078E0B898F1DFB09BFECFEEDF8894B19925
:100B0E000894B89AF1DFEE1F7A9599F77A2F77232A
:100B1E0011F4B99801C0B99ADFDFB898E5DFB89A39
:100B2E00DBDFB998D9CF78E0AA0F10F4B99801C0DD
:100B3E00B99ADADFB898D0DFB09BFECFCDDFB89A86
:100B4E007A9591F7B998C8DFB898CEDFE1E0B19900
:100B5E00EE27B89AC1CF109639F080ED97E0019745
:100B6E00F1F7A8951197C9F70895F195E195F04021
:100B7E000895FA9FF02DEB9FF00DEA9FE02DF10DF9
:100B8E00089534D0F6DF0EF4F0DF0895002411241A
:100B9E0090E1AA0FBB1F001C111C0E1A1F0A18F49D
:100BAE000E0E1F1E01C0A1609A9599F7FD01D0018E
:100BBE0008951CD0EBDF0EF4D8DF0895E894B7FF4C
:100BCE0004C0A095B09511966894F7FDCEDFDEDFD8
:100BDE00FD010EF4CADF0895E894F7FF02C0C5DFE9
:100BEE006894EA23FB230EF4C0DF0895E894F7FF20
:100BFE0002C0BBDF6894B7FF06C0A095B0951196F2
:100C0E0000F8039400FA089500240A160B060895BE
:00000001FF
